:020000040800F2
:1000000028060020D5000008C51800086D16000855
:1000100000000000000000000000000000000000E0
:100020000000000000000000000000000F190008A0
:1000300000000000000000000D1900081119000860
:10004000E7000008E7000008E7000008E7000008F4
:10005000E7000008E7000008E7000008E7000008E4
:10006000E7000008E7000008E7000008E7000008D4
:10007000E7000008E700000800000000E7000008B3
:1000800000000000E7000008000000000000000081
:10009000E700000800000000E1190008E700000880
:1000A000E7000008E7000008E7000008E700000894
:1000B000E7000008E7000008E7000008E700000884
:1000C0000348854600F08EF800480047791F000875
:1000D000280600200448804704480047FEE7FEE762
:1000E000FEE7FEE7FEE7FEE78D190008C100000805
:1000F00030B50B46014600202022012409E00D46C0
:10010000D5409D4205D31D469540491B2546954047
:1001100040191546521E002DF1DC30BDF0B51FB45C
:100120000646002082B005464024019100901BE065
:10013000019922460F46304600F042F8049A059B8A
:10014000801A994110D310461946224600F028F82B
:10015000361A8F410197224601200021009F00F0AE
:100160001FF838184D4100902046641E0028DFDC3F
:10017000019B00982946324607B0F0BDD2B201E09B
:100180000270401C491EFBD270470022F6E710B5F2
:1001900013460A4604461946FFF7F0FF204610BDF5
:1001A00010B5202A04DB0146203A9140002010BD02
:1001B000914020239C1A0346E3401943904010BD10
:1001C00010B5202A04DB0846203AD040002110BD9B
:1001D0000B46D340D0402024A21A91400843194630
:1001E00010BD0000064C0125064E05E0E36807CC73
:1001F0002B430C3C98471034B442F7D3FFF764FF0D
:100200000C2000082C20000838B504460648054993
:100210000068FFF76DFF604300E0401E009000287B
:10022000FBD138BD40420F0070000020F8B50646F3
:100230000D464036317C01290DD001213174016811
:100240008A68520709D5416D20221143416500207B
:1002500030740120F8BD0220F8BD204B6A68D80533
:1002600047109A421E4C8A6A2B681BD05B035B0BBB
:100270001A438A622968490305D5A1680143A16030
:100280000A20FFF7C1FF2868800302D5A068384321
:10029000A0602868C0031DD5A06801210906084395
:1002A000A06017E05B035B0B9A438A6229684903ED
:1002B00002D5A1688143A1602868800302D5A068A7
:1002C000B843A0602868C00304D5A16801200006D7
:1002D0008143A16000203074F8BD000001100000CF
:1002E0000027014070B5040006D0606D2646002549
:1002F0004036002802D006E0012070BDA5653574A7
:10030000204600F0D3F8606DC00603D421688868E9
:10031000400705D5606D1021084360653574EBE733
:10032000606DFF22013290430222104360658868AD
:100330008207920F5B48012A02D10A68D2072BD1AB
:10034000032362689B079A4205D05B429A4202D01F
:100350005B009A4209D10A69920092080A612168F9
:100360000A6963681A430A610CE00A6992009208FC
:100370000A6181680F2292049143816081686268FA
:10038000114381602168CA6818239A43CA602168B2
:10039000CA68A3681A43CA60816801225206914361
:1003A00081608168A28E5206114381602068816855
:1003B000C90004D4816801221207114381602068BA
:1003C000C168394A1140C1602069E168022825D01E
:1003D00000200143204620300278037B52035B005B
:1003E0001A431143226B1143A26992031143E2693C
:1003F000D20311432268D3681943D160616A0A4667
:10040000FF3AC23A05D0A26A11432268D368194361
:10041000D16042780121012A02D00BE00420D8E704
:100420000078002823D0606D202210436065A06D05
:100430000843A065E06B012820681FD00169C90747
:1004400003D0016949084900016120684169C90870
:10045000C900416120684169A26B11434161A565F2
:10046000606D80088000401C6065002070BD2068C1
:10047000C26801231B041A43C260DBE70269FF2341
:100480009B009A43026120680269236CA66C1A43A0
:10049000636C33431A430261206802690A430261B4
:1004A000D3E70000002701401902FEFF10B586B017
:1004B000044614216846FFF768FE0E49206888420A
:1004C00015D10D48416B421511434163C16A0122A8
:1004D0001143C162C06A6946104005900320009034
:1004E0000190002002900520000700F007F806B0F8
:1004F00010BD00000024014000100240F8B50023A8
:100500000124A2E027469F403A4070D04D68022D5A
:1005100001D0122D14D1DD08AD002D1800952D6AE3
:100520005E07AC46F50E0F26AE46AE406546B543B7
:10053000AC460E697546AE4065462E43009D2E6260
:100540004D68012D05D0022D03D0112D01D0122DA3
:1005500016D185680326AC465D00AE46AE406546C2
:10056000B543AC46CE687546AE4065462E438660C0
:1005700046680D79BE43ED06ED0F9D40354345605D
:1005800006685F000325BD40AE46AE430D79B44614
:10059000AE07B60FBE4065462E430660C668754678
:1005A000AE438D68BD403543C5604D68ED004BD509
:1005B000294D6E6B26436E639E08284DB600751953
:1005C000AC46AD689E07360F0F27B740BD430527E1
:1005D0003F07B84201D1002715E0214FB84201D1B1
:1005E000012710E01F4FB84202D102270BE02BE099
:1005F0001D4FB84201D1032705E01C4FB84201D17D
:10060000052700E00627B7402F436546AF60184D29
:100610002E684F689643FF0300D516432E606E6820
:100620004F689643BF0300D516436E60AE684F68AF
:100630009643FF0200D51643AE60EE684F689643BE
:10064000BF0200D51643EE605B1C0A681546DD400C
:1006500000D057E7F8BD0000001002400000014044
:100660000004005000080050000C0050001C005016
:1006700000040140002A01D0816170478162704707
:1006800001480068704700006C00002070B5024609
:1006900040325378202B1CD11378012B19D0012321
:1006A000137024245470046825689D4325600468F1
:1006B00025681E03B5432560046825680D43256041
:1006C00000680168194301602020507000201070FC
:1006D00070BD022070BD70B5024640325378202BA9
:1006E0001BD11378012B18D00124147024235370CC
:1006F00003681D68A5431D6005682B680F26360238
:10070000B34309021943296000680168214301606D
:10071000202050700020107070BD022070BD0000BD
:1007200070B5040006D025464035687800260028BC
:1007300002D005E0012070BD2E70204600F04AF87E
:1007400024206870206801684908490001600F2171
:100750006068090688432168086121688A68012069
:10076000C00382438A60E1680129A16808D0212280
:100770009202114322689160E168022902D005E0EB
:100780000143F7E701212268C902516021684A68E4
:100790000F4B1A434A602168CA688243CA60616984
:1007A00020690843A169090208432168C860216AD9
:1007B000E06908432168086020680168012211434C
:1007C00001606664202068702663AE70002070BDF2
:1007D0000080000210B586B0044614216846FFF779
:1007E000D4FC10492068884219D10F4CE16A0220DC
:1007F0000143E162E16A01400591C02000901220AE
:100800000121019003200291049103906946074859
:10081000FFF774FEA06B012149050843A06306B0F1
:1008200010BD0000005400400010024000040050C1
:1008300070B504000FD02168134808602168134880
:10084000086003CC41602068083C21688860FFF79D
:1008500017FF054608E0012070BDFFF711FF401BA0
:10086000302801D9032070BD2068C0680028F4D169
:1008700020680269E1688A4201D0016101E004490F
:100880000160002070BD0000CCCC00005555000078
:10089000AAAA000002480168491C016070470000D4
:1008A0006C00002010B50848002401684022114364
:1008B0000160204600F00AF8002801D0012401E080
:1008C00000F01CF8204610BD0020024070B505461F
:1008D00009487D210024C9000068FFF709FC00F0E9
:1008E00049FC002801D0012404E000222946501EC2
:1008F00000F01AF8204670BD700000200448416BDB
:10090000012211434163816B0204114381637047EB
:1009100000100240C106C90E01208840014908604C
:100920007047000000E100E010B500F0CDFF10BD01
:10093000F8B504460068614D810601D400057DD5F7
:100940005E4E0027403EB06BC00004D4B06B310453
:100950000843B06301275A480168C90511D40168EA
:10096000821511430160FFF78BFE009005E0FFF751
:1009700087FE0099401A642844D851480068C00591
:10098000F5D53168032000056268014010408842B7
:1009900005D10323A0681B051840884208D09003A6
:1009A000800F032804D13068800301D50120F8BDF1
:1009B000286903210904084029D00A40824202D054
:1009C0002278920606D4A2680A4082421FD020886C
:1009D00000051CD528692A6988430121C9040A43F6
:1009E0002A612A698A432A612861C0050FD5FFF769
:1009F00047FE009008E0FFF743FE0099411A314896
:100A0000814201D90320F8BD28698005F3D56168CA
:100A10008803800F032805D1326800058243014016
:100A20000A433260286903226168120411400843B6
:100A30002861002F06D0B16B012000E002E0000722
:100A40008143B1632078C00705D0E868E168800879
:100A500080000843E8602078800705D5E8680C210D
:100A6000884321690843E8602078400706D5E86894
:100A700003218902884361690843E8602078000700
:100A800006D5E868032109038843A1690843E860A3
:100A90002078400606D5E868012189068843216A46
:100AA0000843E8602078000606D5E8680321890439
:100AB0008843E1690843E8600020F8BD4010024027
:100AC0000070004088130000F8B50E4605007DD088
:100AD00053480068C007C00FB0420AD250480168AE
:100AE00049084900314301600068C007C00FB042A7
:100AF00071D128784B4C800705D5E068F0218843F8
:100B0000A9680843E0602878C00752D068680228C6
:100B100017D0032818D02168012818D0890500298A
:100B200059DAE168890889000143E160FFF7A8FD0F
:100B300069680746022912D003291CD0012926D052
:100B400033E021688903EAE721688901E7E749077B
:100B5000E5E7FFF795FDC11B3348814223D8E068E4
:100B60000007800F0228F4D123E0FFF789FDC11BA5
:100B70002D48814217D8E0680007800F0328F4D180
:100B800017E0FFF77DFDC11B274881420BD8E068C5
:100B90000007800F0128F4D10BE0FFF771FDC11BA6
:100BA0002148814201D90320F8BDE0680007800F89
:100BB000F3D11B480168C907C90FB1420DD90168BB
:100BC0004908490031430160006800E003E0C007C4
:100BD000C00FB04201D00120F8BD2878400706D5EB
:100BE000E068072109028843E9680843E060287843
:100BF000000707D5E0680721C90288432969C900B1
:100C00000843E06000F036F8E168084A0906090F79
:100C1000515CC840064908600020FFF757FEF8BD48
:100C2000002002400010024088130000E81F000866
:100C300070000020044805490068C968044A490555
:100C4000490F515CC84070477000002000100240FE
:100C500001200008044805490068C968044A89045D
:100C6000490F515CC84070477000002000100240DE
:100C70000120000810B5184AD1680C20084004284B
:100C80000BD0082810D00C2810D050680004410F59
:100C90000120C003491C884010BD1068C00601D562
:100CA0000E4810BD0E4810BD0E4810BD88020E4BF8
:100CB000000F185C0902D368890F491CDB0301D5BA
:100CC000084A05E01268D20601D5044A00E0044A49
:100CD0005043FFF70DFA10BD0010024000093D001F
:100CE0000024F40000127A00F81F0008FEB5050089
:100CF0007ED0FE4CE7680C20E66807400120000427
:100D000006402878C00747D0082F05D00C2F0AD1FD
:100D100001200004864206D1206880033CD5686823
:100D20000028E5D038E0012069680004814203D141
:100D300021680143216011E0052301221B04920474
:100D40009942216802D111432160F1E7814321607A
:100D50002168014000912068904320606868002865
:100D60000DD0FFF78DFC009005E0FFF789FC00999E
:100D7000401A64287AD820688003F6D50CE0FFF783
:100D80007FFC009005E0FFF77BFC0099401A642887
:100D9000F0D820688003F6D42878800755D5092339
:100DA000E868042F0DD00C2F01D1002E09D00028A7
:100DB0003BD02168994301432160FFF761FC06465F
:100DC00027E02168490701D5002891D061681F22DA
:100DD000120291432A69120211436160216899430A
:100DE00001432160FFF746FFE16809060A0F00E0B2
:100DF000BBE1BF49895CC840BE4908600020FFF7DD
:100E000065FD002872D120E0FFF73AFC801B022824
:100E1000B0D820684007F7D560681F2109028843D1
:100E200029690902084360600FE02068400840001B
:100E30002060FFF725FC064604E0FFF721FC801B3D
:100E4000022897D820684007F7D42878C0065FD5D5
:100E5000002F0CD0E869002849D02068FF2101311B
:100E600008432060FFF70CFC06462DE0E4E0206814
:100E7000800502D5E8690028A7D0606807214903EA
:100E80008843696A084360606068298C0002000A30
:100E9000090608436060686A410B0120C003491CD1
:100EA0008840E16809060A0F9149895CC840914968
:100EB00008600020FFF70AFD002817D128E0FFF79F
:100EC000DFFB801B0228A3D820688005F7D5606867
:100ED000072149038843696A084360606068298C78
:100EE0000002000A09060843606011E023E121685E
:100EF000FF20013081432160FFF7C2FB064604E07A
:100F0000FFF7BEFB801B02289BD820688005F7D422
:100F10002878794E000724D568690028306910D0F8
:100F2000012108433061FFF7ABFB009005E0FFF7BC
:100F3000A7FB0099401A02287ED830698007F6D5B1
:100F40000FE0400840003061FFF79AFB009005E099
:100F5000FFF796FB0099401A02286DD83069800788
:100F6000F6D42878400764D500200290A06BC0001A
:100F700006D4A06B012109070843A0630120029059
:100F80005E480168C90511D40168821511430160EA
:100F9000FFF776FB009005E0FFF772FB0099401A1F
:100FA000642849D855480068C005F5D5FF20AA68CF
:100FB0000130824203D131690143316111E00121E5
:100FC0008902002A07D005231B029A4203D1326905
:100FD0000A433261EFE73269824332613069884304
:100FE0003061A86800280ED0FFF74AFB009006E0A9
:100FF000FFF746FB0099411A414881421CD83069ED
:101000008005F5D50DE0FFF73BFB009006E0FFF70C
:1010100037FB0099411A3A4881420DD83069800562
:10102000F5D40298002804D0A16B01200007814369
:10103000A1632878800600E07CE02ED53148A969BC
:101040004314002916D0A26801210A43A260626BF2
:101050000A436263016A19430162FFF711FB064606
:1010600004E0FFF70DFB801B022863D8A06880070F
:10107000F7D512E0A16849084900A160016A9943C7
:101080000162FFF7FDFA064604E0FFF7F9FA801B5C
:1010900002284FD8A0688007F7D4A86A002866D035
:1010A0000C2F4DD0012636060228206805D0B0430B
:1010B0002060FFF7E5FA05463EE0B0432060FFF709
:1010C000DFFA074604E0FFF7DBFAC01B022831D83D
:1010D00020688001F7D4296BE86AE2680843696BED
:1010E000FD231B049A43114308430DE00010024006
:1010F000E81F00087000002040100240007000400F
:101100008813000000000140E06020683043206048
:10111000FFF7B6FA054604E0FFF7B2FA401B0228D3
:1011200008D820688001F7D521E0FFF7A9FA401B15
:10113000022801D90320FEBD20688001F5D416E005
:101140000128F8D0E06801210904EA6A01409142CF
:101150000BD10F2189042A6B0140914205D1032153
:1011600089050840696B884201D00120FEBD00203E
:10117000FEBD0000094910B5401E884201D901207A
:1011800010BD074C60610321081F00F09DFB00208B
:10119000A06107202061002010BD0000FFFFFF00BC
:1011A00000E000E0F0B502462032137E012B15D09E
:1011B000012717760223537605686C68AB687026A2
:1011C000B4430E68496826438024A34319436E60E4
:1011D00000688160577600201076F0BD0220F0BDD7
:1011E00070B5040005D025462035687E002802D061
:1011F00006E0012070BD00202876204600F00AF8A5
:1012000002206876211D206800F0F4FB012068763A
:10121000002070BD10B50122016892070B48914271
:1012200004D1816B01221143816310BD084A9142B0
:10123000FBD1416B2022114341630022114616204D
:10124000FFF772FB1620FFF765FB10BD0010024090
:1012500000140140F8B5054604462035287E0128D3
:1012600017D001262E7602206876226890687727AC
:10127000FF23B8431B02984390600A68502A31D07C
:101280000EDC202A4BD006DC002A48D0102A3AD1A6
:1012900045E00220F8BD302A41D0402A33D136E063
:1012A000602A27D0702A12D001200003121A2AD0F7
:1012B000824228D1CB684A688968206800F0C6FB62
:1012C0002068816801229203114381601BE0CB6892
:1012D0004A688968206800F0B9FB2168886838434B
:1012E000886010E0CA684968206800F029FC502135
:1012F000206806E0CA684968206800F032FC602176
:10130000206800F0AEFB6E7600202876F8BDCA6833
:101310004968206800F014FC40212068F1E711467C
:101320002068EEE7704770B5044600680169002543
:10133000C9438907002915DBC168C943890711D44E
:10134000E91E01610120207620688069800720461F
:1013500002D0FFF7E7FF04E000F09EF8204600F01F
:101360001FF9257620680169C943490717D4C16868
:10137000C943490713D40421C943016102202076DF
:10138000206880698005800F204602D0FFF7CAFFE1
:1013900004E000F081F8204600F002F9257620688C
:1013A0000169C943090716D4C168C943090712D4A2
:1013B0000821C9430161042020762068C0698007A4
:1013C000204602D0FFF7AEFF04E000F065F82046AB
:1013D00000F0E6F8257620680169C943C90617D4EC
:1013E000C168C943C90613D41021C943016108204B
:1013F00020762068C0698005800F204602D0FFF764
:1014000091FF04E000F048F8204600F0C9F8257686
:1014100020680169C943C90708D1C168C943C90720
:1014200004D1891E0161204600F0BBF820680169E3
:10143000C943490609D4C168C943490605D44021B6
:10144000C9430161204600F0ADF870BD10B586B00B
:10145000044614216846FEF798FE0121206889079A
:10146000884212D10A49CA6A02200243CA62C96A82
:101470000190014005910821009100210291039102
:10148000049069460348FFF739F806B010BD000024
:1014900000100240000400507047F8B506460446AC
:1014A0002036307E0D4601280DD0012030760220F6
:1014B00070760427002A08D0042A16D0082A2AD0D9
:1014C0000C2A4DD137E00220F8BD206800F0D1FA97
:1014D0002068816908221143816120688169B943CC
:1014E000816120688169EA6812E0206800F0D9FA19
:1014F000206882690121C9020A43826120688169EA
:10150000012292029143816120688169EA68120296
:101510001143816124E0206800F0DCFA2068C26990
:1015200008210A43C2612068C169B943C1612068CA
:10153000C169EA6812E0206800F0E7FA2068C16932
:101540000122D2021143C1612068C26901218902CE
:101550008A43C2612068C169EA6812021143C1610D
:101560000120707600203076F8BD70B5040005D0FB
:1015700025462035687E002802D006E0012070BD97
:1015800000202876204600F00AF802206876211D07
:10159000206800F02FFA01206876002070BD7047A7
:1015A00070477047704710B5040003D0606F002883
:1015B00002D007E0012010BD002170200155204617
:1015C00000F026F824206067206801684908490077
:1015D0000160204600F06EFB0128ECD0606A002814
:1015E00002D0204600F0D0FA206841680922D202D9
:1015F00091434160206881682A229143816020687C
:101600000168012211430160204600F023FB10BD58
:1016100010B586B0044614216846FEF7B6FD1149A0
:10162000206888421BD11048816B0122520411436B
:101630008163C16A01221143C162C06A69461040D8
:1016400005900C20009002200190002002900320C1
:1016500003900420049005200007FEF74FFF06B01A
:1016600010BD00000044004000100240FEE70000F2
:101670001CB5002117480091154A01910260C16311
:101680008160032201248163920704614260024663
:10169000C16020321170FF235170C23343628162F6
:1016A000117301638161042241634261C161FEF7EC
:1016B00019FE20030190694600940648FEF7B6FD26
:1016C0000548009069460348FEF7B0FD1CBD0000C8
:1016D000002401407400002002000004F0B587B02F
:1016E00014216846FEF751FD2348C26A04210A43CB
:1016F000C262C26A0A400592C26A80210A43C2627B
:10170000C26A0A400592C16A01263143C162C16AB8
:1017100031400591C16A02252943C162C06A05278B
:1017200028403F070590002220213846FEF7A2FFFF
:101730002803009011480024019069460294104843
:10174000FEF7DCFE20200090029469460196039487
:101750003846FEF7D3FE032080036A4631C269464D
:101760000848FEF7CBFEC0206A4631C269460448ED
:10177000FEF7C4FE07B0F0BD0010024000002110CB
:10178000000800500004005010B50E480C490160DC
:10179000E121C900416000218160016141618161F5
:1017A0000122C161C2600162FEF7BAFF0021054853
:1017B000FEF76CFF00210348FEF78DFF10BD00000F
:1017C00000540040D000002010B586B000240094E2
:1017D000104801940294039404940D490594016007
:1017E00047218460416004610B494461C160FFF797
:1017F000F7FC01200003009069460648FFF72AFD28
:10180000049404A903480594FFF7CCFC06B010BD6E
:101810000014014068010020E703000010B58AB001
:101820000024049405940694079408940121174811
:1018300009940094019402948907039412C00460EF
:1018400084601349C46041600838FFF7C9FC012077
:101850000003049004A90D48FFF7FCFC0B48FFF7B8
:1018600084FE089408A909480994FFF79BFC6020AE
:101870000090019402940422694603940348FFF700
:101880000CFE0248FFF7E2FD0AB010BD2C0100205B
:101890001F1C000010B50A4808490160E1214902F7
:1018A000416000218160C16001618161C1610C22E0
:1018B000016242614162FFF776FE10BD00440040C4
:1018C000A4010020704700008307FF22DB0E9A402E
:1018D0008907090E994000280BDA0007000F083825
:1018E000830808489B001818C36993430B43C361DE
:1018F0007047830804489B001B18186890430843EE
:101900001860704700ED00E000E400E070477047A9
:1019100010B5FEF7BFFF10BD10B59CB0382168466A
:10192000FEF733FC142117A8FEF72FFC24210EA884
:10193000FEF72BFC144801680322D2029143C21423
:10194000891801601820009001200590079005205B
:1019500000244003099008940A946846FFF7C6F9EA
:101960000F201790189419941A9400211B9417A80B
:10197000FFF7AAF80A200E90129414940EA8FEF70E
:10198000D7FF1CB010BD0000007000401048016877
:10199000821511430160C1680E4A1140C16001689F
:1019A0000D4A114001608168490849008160016861
:1019B0000122920491430160C168FD221204914307
:1019C000C160002101610549C003886070470000C3
:1019D000001002400C40FF88F6FFF6FE00ED00E02C
:1019E00010B50348FFF79FFC00F0E8FA10BD0000B7
:1019F0006801002070B5026801239B07114C124D4D
:101A0000984203D0A04201D0A84203D17026B2432D
:101A10004E683243984203D0A04201D0A84204D17C
:101A200003231B029A43CB681A4380239A430B6912
:101A30001A4302608A68C2620968816201214161B9
:101A400070BD0000000801400014014030B58468FA
:101A5000FF252D021B021343AC430B43234383603A
:101A600030BD826870239A430A4307210A4382608B
:101A7000704730B5026A520852000262026A456835
:101A800083697024A3439C080B68A40023430224A9
:101A9000A2438C68456014438361496841630462D2
:101AA00030BD30B5026A10239A430262036A45686A
:101AB000826973242402A2430C6824021443202266
:101AC00093438A68456012011A43846149688163BF
:101AD000026230BD30B5026AFF2301339A430262CD
:101AE000026A4568C3697024A3439C080B68A4007C
:101AF000234301246402A2438C68456024021443FA
:101B0000C3614968C163046230BD30B5026A012314
:101B10001B039A430262036A4568C2697324240264
:101B2000A2430C68240214430122520393438A689F
:101B3000456012031A43C46149680164026230BD02
:101B400030B5036A046A6408640004628469F0259D
:101B5000AC43120122430A24A3430B438261036274
:101B600030BD30B5036A1024A34303628469036A5D
:101B70000F252D031203AC432243A024A3430901E4
:101B800019438261016230BD10B5818CC90707D04D
:101B900001684A6801235B049A43836A1A434A60D6
:101BA000818C890707D501684A6801231B049A4381
:101BB000C36A1A434A60818C490707D501684A689D
:101BC00001239B049A43036B1A434A60818C0907E3
:101BD00007D501684A680123DB039A43436B1A4324
:101BE0004A60818CC90607D50268916801231B03EE
:101BF0009943836B19439160818C890607D50168ED
:101C00008A6801235B039A43C36B1A438A60818C01
:101C1000490612D503685A6801210905046C8A43F4
:101C200022435A60026C8A4207D10268516803233A
:101C30005B059943436C19435160818C090607D5B4
:101C400001684A680123DB04806C9A4302434A60BE
:101C500010BD0000F8B500260446C667FEF710FD6B
:101C6000054620680068124F000709D501212B4660
:101C7000002249052046009700F030F900280DD1D8
:101C80002068006840070BD501212B4600228905FA
:101C90002046009700F022F9002801D00320F8BD6B
:101CA00020206067A067603426740020F8BD000023
:101CB000FFFFFF01F8B504462669A268E7693243D1
:101CC0006669102000253E432368324378491E6828
:101CD000784F3E4016431E6023685A680326360339
:101CE000B243E66832435A602368A2698B4201D04E
:101CF000266A32439E680B273F02BE4316439E600E
:101D00006D4E23686D4AB3420CD1D2689207920F90
:101D100006D0012A38D0022A34D0032A20D11EE06E
:101D200001201DE0664EB3420AD1D2680C26324033
:101D300026D0042A28D0082A24D00C2A10D10EE05C
:101D40008B420DD1D66803229202164018D0012290
:101D50009202B61A18D0B61A14D0964200D10820B2
:101D6000564A0126403A574FF6038B4236D1002897
:101D70000CD002280DD0042812D008281FD11CE056
:101D80000020EDE70220EBE70420E9E7FEF752FF31
:101D900008E01068C00601D5384605E04A4803E06F
:101DA000FEF768FF002873D0626851005118814225
:101DB00005D81103814202D303E03046F4E7012540
:101DC00066E0010E06025008002330185941FEF764
:101DD000A5F903210902411A3C4A55E0E169B142E3
:101DE00032D1030000F0ABF809070A0D06250606FC
:101DF000062B0600E3E7FEF71DFF1CE0FEF72AFFB7
:101E000019E010686168C00602D54808304A01E050
:101E1000304A48088018FEF76BF980B201462E4A16
:101E200010399142CBD8511C01400007400F0843A4
:101E30002CE0FEF71FFF616840004A08EAE761688E
:101E4000012248081204E5E7030000F078F80907CA
:101E50000A0D06260606062C0600B0E7FEF7EAFE87
:101E60001DE0FEF7F7FE1AE010686168C00602D5B3
:101E70004808C01902E014484A081018FEF738F95B
:101E800080B20146144A1039914298D82168C8603E
:101E90000020206660662846F8BDFEF7EBFE61680C
:101EA0004A088018EAE7616848088019E6E70000F8
:101EB00000480040F369FFEF003801404010024045
:101EC0000044004000093D000024F400FFFC0F0026
:101ED00000127A000048E801EFFF0000FFB581B072
:101EE00017460E4604460A9D09E0681C07D0FEF717
:101EF000C7FB0499401AA8420CD8002D0AD02068CC
:101F0000C1693046884318D00020B842EDD0002087
:101F100005B0F0BD20680168FF22A1329143016045
:101F20002068816849084900816020206067A067B7
:101F30000020603420740320EAE70120E5E730B494
:101F40007446641E2578641CAB4200D21D46635D56
:101F50005B00E31830BC184702E008C8121F08C134
:101F6000002AFAD170477047002001E001C1121F1A
:101F7000002AFBD170470000FEF794FCFFF7CCFC71
:101F8000FFF7ACFBFFF774FBFFF7FEFB09480849BE
:101F90000160002141600849C1608160FEF748FC92
:101FA000FFF73CFCFFF710FCFFF774FCFEE70000B6
:101FB000003000401C010020FF0F0000084841884D
:101FC00043684A009A5A074B1B689A63491C89B2B6
:101FD00041800288914201D3002141807047000076
:101FE000640000202C010020000000000000000020
:101FF0000102030406070809030406080C10182050
:102000003000000000010203040000002C20000842
:102010000000002074000000581F0008A0200008E5
:1020200074000020B4050000681F00080807EA07D4
:10203000C8089F096B0A2A0BD80B730CF80C650DA6
:10204000B80DF00D0C0E0C0EF00DB80D650DF80C62
:10205000730CD80B2A0B6B0A9F09C808EA070807FC
:10206000260648057104A503E60238029D01180101
:10207000AB00580020000400040020005800AB0012
:1020800018019D013802E602A503710448052606E1
:1020900032000000000000200000000000002000CE
:04000005080000C12E
:00000001FF
